{
  "contractName": "Contest",
  "abi": [
    {
      "constant": true,
      "inputs": [
        {
          "name": "",
          "type": "address"
        }
      ],
      "name": "voters",
      "outputs": [
        {
          "name": "",
          "type": "bool"
        }
      ],
      "payable": false,
      "stateMutability": "view",
      "type": "function",
      "signature": "0xa3ec138d"
    },
    {
      "constant": true,
      "inputs": [
        {
          "name": "",
          "type": "uint256"
        }
      ],
      "name": "contestants",
      "outputs": [
        {
          "name": "id",
          "type": "uint256"
        },
        {
          "name": "name",
          "type": "string"
        },
        {
          "name": "voteCount",
          "type": "uint256"
        }
      ],
      "payable": false,
      "stateMutability": "view",
      "type": "function",
      "signature": "0xdfd50f52"
    },
    {
      "constant": true,
      "inputs": [],
      "name": "contestantsCount",
      "outputs": [
        {
          "name": "",
          "type": "uint256"
        }
      ],
      "payable": false,
      "stateMutability": "view",
      "type": "function",
      "signature": "0xec63d1c8"
    },
    {
      "inputs": [],
      "payable": false,
      "stateMutability": "nonpayable",
      "type": "constructor",
      "signature": "constructor"
    },
    {
      "constant": false,
      "inputs": [
        {
          "name": "_name",
          "type": "string"
        }
      ],
      "name": "addContestant",
      "outputs": [],
      "payable": false,
      "stateMutability": "nonpayable",
      "type": "function",
      "signature": "0x832c0aca"
    },
    {
      "constant": false,
      "inputs": [
        {
          "name": "_contestantId",
          "type": "uint256"
        }
      ],
      "name": "vote",
      "outputs": [],
      "payable": false,
      "stateMutability": "nonpayable",
      "type": "function",
      "signature": "0x0121b93f"
    }
  ],
  "bytecode": "0x608060405234801561001057600080fd5b5061005e6040805190810160405280600381526020017f546f6d00000000000000000000000000000000000000000000000000000000008152506100b0640100000000026401000000009004565b6100ab6040805190810160405280600581526020017f4a657272790000000000000000000000000000000000000000000000000000008152506100b0640100000000026401000000009004565b6101d1565b60026000815480929190600101919050555060606040519081016040528060025481526020018281526020016000815250600080600254815260200190815260200160002060008201518160000155602082015181600101908051906020019061011b92919061012c565b506040820151816002015590505050565b828054600181600116156101000203166002900490600052602060002090601f016020900481019282601f1061016d57805160ff191683800117855561019b565b8280016001018555821561019b579182015b8281111561019a57825182559160200191906001019061017f565b5b5090506101a891906101ac565b5090565b6101ce91905b808211156101ca5760008160009055506001016101b2565b5090565b90565b6105f5806101e06000396000f3fe60806040526004361061006d576000357c0100000000000000000000000000000000000000000000000000000000900463ffffffff1680630121b93f14610072578063832c0aca146100ad578063a3ec138d14610175578063dfd50f52146101de578063ec63d1c8146102a0575b600080fd5b34801561007e57600080fd5b506100ab6004803603602081101561009557600080fd5b81019080803590602001909291905050506102cb565b005b3480156100b957600080fd5b50610173600480360360208110156100d057600080fd5b81019080803590602001906401000000008111156100ed57600080fd5b8201836020820111156100ff57600080fd5b8035906020019184600183028401116401000000008311171561012157600080fd5b91908080601f016020809104026020016040519081016040528093929190818152602001838380828437600081840152601f19601f8201169050808301925050505050505091929192905050506103c0565b005b34801561018157600080fd5b506101c46004803603602081101561019857600080fd5b81019080803573ffffffffffffffffffffffffffffffffffffffff16906020019092919050505061043c565b604051808215151515815260200191505060405180910390f35b3480156101ea57600080fd5b506102176004803603602081101561020157600080fd5b810190808035906020019092919050505061045c565b6040518084815260200180602001838152602001828103825284818151815260200191508051906020019080838360005b83811015610263578082015181840152602081019050610248565b50505050905090810190601f1680156102905780820380516001836020036101000a031916815260200191505b5094505050505060405180910390f35b3480156102ac57600080fd5b506102b561051e565b6040518082815260200191505060405180910390f35b600160003373ffffffffffffffffffffffffffffffffffffffff1673ffffffffffffffffffffffffffffffffffffffff16815260200190815260200160002060009054906101000a900460ff1615151561032457600080fd5b60008111801561033657506002548111155b151561034157600080fd5b6000808281526020019081526020016000206002016000815480929190600101919050555060018060003373ffffffffffffffffffffffffffffffffffffffff1673ffffffffffffffffffffffffffffffffffffffff16815260200190815260200160002060006101000a81548160ff02191690831515021790555050565b60026000815480929190600101919050555060606040519081016040528060025481526020018281526020016000815250600080600254815260200190815260200160002060008201518160000155602082015181600101908051906020019061042b929190610524565b506040820151816002015590505050565b60016020528060005260406000206000915054906101000a900460ff1681565b6000602052806000526040600020600091509050806000015490806001018054600181600116156101000203166002900480601f01602080910402602001604051908101604052809291908181526020018280546001816001161561010002031660029004801561050e5780601f106104e35761010080835404028352916020019161050e565b820191906000526020600020905b8154815290600101906020018083116104f157829003601f168201915b5050505050908060020154905083565b60025481565b828054600181600116156101000203166002900490600052602060002090601f016020900481019282601f1061056557805160ff1916838001178555610593565b82800160010185558215610593579182015b82811115610592578251825591602001919060010190610577565b5b5090506105a091906105a4565b5090565b6105c691905b808211156105c25760008160009055506001016105aa565b5090565b9056fea165627a7a723058206195982aaac37471160e8caeff5f1211184b6e9f38bc933d76eda15bfffe62060029",
  "source": "pragma solidity 0.5.0;\n\n//creating contract\ncontract Contest{\n\n\nstruct Contestant{\n\tuint id;\n\tstring name;\n\tuint voteCount;\n\n}\n//dec. var.\n\n//string public contestant;\n//create constructor\n\n// constructor() public {\n// \tcontestant = \"Tom\";\n// }\n\n// creating structure to model the content\n\n\n\n//use mapping to get or fetch contestant detailss\n\nmapping(uint=>Contestant) public contestants;\n\n// to save the list of users who already voted.\nmapping(address=>bool) public voters;\n\n//add a public state var. to keep track of contestant\nuint public contestantsCount;\n\n// event VotedEvent{\n//    uint indexed _contestantId\n// };\n \n\nconstructor ( ) public{\n   addContestant(\"Tom\");\n   addContestant(\"Jerry\");\n}\n\n\n// add a fx. to add contestant\nfunction addContestant(string memory _name) public {\n\tcontestantsCount++;\n\tcontestants[contestantsCount] = Contestant(contestantsCount,_name,0);\n}\nfunction vote (uint _contestantId) public {\n\n\t//restricting the voter to cast vote once\n\trequire(!voters[msg.sender]);\n\n\t//require that the vote is casted to valid contestant\n\trequire(_contestantId>0 && _contestantId <= contestantsCount);\n\tcontestants[_contestantId].voteCount++;\n\tvoters[msg.sender] = true;\n//\temit votedEvent(_contestantId);\n}\n\n}",
  "sourcePath": "E:/workspace/contest/contracts/Contest.sol",
  "compiler": {
    "name": "solc",
    "version": "0.5.0+commit.1d4f565a.Emscripten.clang"
  },
  "schemaVersion": "3.0.6",
  "updatedAt": "2019-04-18T15:42:32.248Z",
  "devdoc": {
    "methods": {}
  },
  "userdoc": {
    "methods": {}
  }
}